:100000000C945D000C9485000C9485000C94850084
:100010000C9485000C9485000C9485000C9485004C
:100020000C9485000C9485000C9485000C9485003C
:100030000C9485000C9485000C9485000C9485002C
:100040000C941F030C9485000C94ED020C94C702D1
:100050000C9485000C9485000C9485000C9485000C
:100060000C9485000C94850000000008000201003B
:100070000003040700000000000000000000000072
:10008000250028002B0000000000240027002A0083
:10009000040404040404040402020202020203032E
:1000A0000303030301020408102040800102040836
:1000B0001020010204081020D00411241FBECFEF2D
:1000C000D8E0DEBFCDBF11E0A0E0B1E0EAE0FAE0A9
:1000D00002C005900D92AA33B107D9F721E0AAE337
:1000E000B1E001C01D92A03EB207E1F710E0CDE5FE
:1000F000D0E004C02197FE010E94FD04CC35D10759
:10010000C9F70E9469030C9403050C94000090E069
:10011000FC01EC55FF4F249180579F4FFC018491C7
:10012000882399F090E0880F991FFC01EA57FF4F50
:10013000A591B491FC01E458FF4F859194918FB73C
:10014000F894EC91E22BEC938FBF0895AF92BF929D
:10015000CF92DF92EF92FF920F931F93CF93DF9393
:100160006C017B018B01040F151FEB015E01AE18C2
:10017000BF08C017D10759F06991D601ED91FC91E4
:100180000190F081E02DC6010995892B79F7C50111
:10019000DF91CF911F910F91FF90EF90DF90CF9063
:1001A000BF90AF900895FC01538D448D252F30E012
:1001B000842F90E0821B930B541710F0CF96089574
:1001C00001970895FC01918D828D981761F0A28DA1
:1001D000AE0FBF2FB11D5D968C91928D9F5F9F7367
:1001E000928F90E008958FEF9FEF0895FC01918D1D
:1001F000828D981731F0828DE80FF11D858D90E08A
:1002000008958FEF9FEF0895FC01918D228D892F26
:1002100090E0805C9F4F821B91098F73992708950E
:1002200083E491E00E94040121E0892B09F420E09D
:10023000822F089580E090E0892B29F00E94100120
:1002400081110C9400000895FC01A48DA80FB92F12
:10025000B11DA35ABF4F2C91848D90E001968F73EE
:100260009927848FA689B7892C93A089B1898C910D
:10027000837080648C93938D848D981306C002885C
:10028000F389E02D80818F7D80830895EF92FF9226
:100290000F931F93CF93DF93EC0181E0888F9B8DA9
:1002A0008C8D98131AC0E889F989808185FF15C063
:1002B0009FB7F894EE89FF896083E889F989808186
:1002C0008370806480839FBF81E090E0DF91CF9155
:1002D0001F910F91FF90EF900895F62E0B8D10E077
:1002E0000F5F1F4F0F731127E02E8C8D8E110CC0E6
:1002F0000FB607FCFACFE889F989808185FFF5CF31
:10030000CE010E942401F1CFEB8DEC0FFD2FF11DEA
:10031000E35AFF4FF0829FB7F8940B8FEA89FB896D
:1003200080818062CFCFCF93DF93EC01888D8823CB
:10033000B9F0AA89BB89E889F9898C9185FD03C048
:10034000808186FD0DC00FB607FCF7CF8C9185FF2D
:10035000F2CF808185FFEDCFCE010E942401E9CF4D
:10036000DF91CF91089590E0FC01E859FF4F24916F
:10037000FC01EC55FF4F3491FC01E057FF4FE49135
:10038000EE23C9F0222339F0233001F1A8F4213003
:1003900019F1223029F1F0E0EE0FFF1FE458FF4F72
:1003A000A591B4918FB7F894EC91611126C0309566
:1003B0003E233C938FBF08952730A9F02830C9F021
:1003C000243049F7809180008F7D03C080918000A8
:1003D0008F7780938000DFCF84B58F7784BDDBCFAC
:1003E00084B58F7DFBCF8091B0008F778093B00074
:1003F000D2CF8091B0008F7DF9CF3E2BDACF1F9303
:10040000CF93DF93182FEB010E948700CF3FD105D8
:1004100039F461E0812FDF91CF911F910C94B301EA
:10042000E12FF0E0E859FF4FE491E33011F148F497
:10043000E130B9F0E23069F784B5806284BDC8BDAF
:1004400014C0E73001F1E83031F1E43011F7809168
:100450008000806280938000D0938B00C0938A00DC
:1004600004C084B5806884BDC7BDDF91CF911F9162
:10047000089580918000806880938000D0938900E7
:10048000C0938800F2CF8091B00080688093B00064
:10049000C093B300EACF8091B00080628093B00037
:1004A000C093B400E2CF3FB7F89480913F019091A0
:1004B0004001A0914101B091420126B5A89B05C021
:1004C0002F3F19F00196A11DB11D3FBFBA2FA92FD3
:1004D000982F8827BC01CD01620F711D811D911DD0
:1004E00042E0660F771F881F991F4A95D1F708953C
:1004F0008F929F92AF92BF92CF92DF92EF92FF9234
:100500004B015C010E9453026B017C010E9453026B
:100510006C197D098E099F09683E7340810591051C
:10052000A8F321E0821A9108A108B10888EEC80E4C
:1005300083E0D81EE11CF11C81149104A104B104D4
:1005400029F7FF90EF90DF90CF90BF90AF909F90F2
:100550008F900895CF93DF93FC0101900020E9F77D
:100560003197AF01481B590BBC0183E491E00E9415
:10057000A600EC0142E050E062E171E083E491E02A
:100580000E94A6008C0F9D1FDF91CF9108951F92AE
:100590000F920FB60F9211242F933F934F935F93B7
:1005A0006F937F938F939F93AF93BF93EF93FF933B
:1005B00083E491E00E942401FF91EF91BF91AF91FC
:1005C0009F918F917F916F915F914F913F912F916B
:1005D0000F900FBE0F901F9018951F920F920FB69D
:1005E0000F9211242F938F939F93EF93FF93E0919A
:1005F0005301F09154018081E0915901F0915A0129
:1006000082FD1BC0908180915C018F5F8F73209170
:100610005D01821741F0E0915C01F0E0ED5BFE4F7F
:10062000958F80935C01FF91EF919F918F912F9116
:100630000F900FBE0F901F9018958081F4CF1F92DE
:100640000F920FB60F9211242F933F938F939F9386
:10065000AF93BF9380913B0190913C01A0913D01EC
:10066000B0913E0130913A0123E0230F2D3758F528
:100670000196A11DB11D20933A0180933B019093F7
:100680003C01A0933D01B0933E0180913F019091C8
:100690004001A0914101B09142010196A11DB11DFF
:1006A00080933F0190934001A0934101B093420198
:1006B000BF91AF919F918F913F912F910F900FBE5E
:1006C0000F901F90189526E8230F0296A11DB11DCB
:1006D000D2CF789484B5826084BD84B5816084BDB6
:1006E00085B5826085BD85B5816085BD80916E00D0
:1006F000816080936E001092810080918100826001
:10070000809381008091810081608093810080913D
:1007100080008160809380008091B100846080932C
:10072000B1008091B00081608093B00080917A0028
:10073000846080937A0080917A00826080937A004E
:1007400080917A00816080937A0080917A0080683D
:1007500080937A001092C100E0915301F09154010E
:1007600082E08083E0914F01F09150011082E0918E
:100770005101F09152018FEC808310925B01E09166
:100780005701F091580186E08083E0915501F09186
:100790005601808180618083E0915501F09156017E
:1007A000808188608083E0915501F09156018081BD
:1007B00080688083E0915501F091560180818F7DA2
:1007C00080838AE00E94870085E00E94870089E09C
:1007D0000E94870088E00E94870087E00E948700CF
:1007E00086E00E948700C0E0D0E083E491E00E94B0
:1007F0000401892BC9F183E491E00E94E200813376
:10080000F1F585E191E00E94AA0261E089E00E9491
:10081000B30160E088E00E94B3016FEF70E08AE00E
:100820000E94FF016DE971E080E090E00E94780293
:1008300060E089E00E94B30161E088E00E94B301BA
:1008400064E170E080E090E00E94780260E089E07E
:100850000E94B30160E088E00E94B30164EF71E0A0
:1008600080E090E00E947802209709F4BECF0E94B9
:100870001001882309F4B9CF0E940000B6CF82335B
:10088000B1F48BE191E00E94AA0261E089E00E944C
:10089000B30160E088E00E94B3016FEF70E08AE08E
:1008A0000E94FF0164E373E080E090E0BFCF8333F8
:1008B000E9F481E291E00E94AA0260E089E00E94EE
:1008C000B30161E088E00E94B3016FEF70E08AE05D
:1008D0000E94FF016DE971E080E090E00E947802E3
:1008E00061E089E00E94B30160E0A7CF843379F42E
:1008F00087E291E00E94AA0260E087E00E94B301D3
:1009000061E086E00E94B3016FEF70E010C08533B4
:10091000F1F48DE291E00E94AA0261E087E00E947A
:10092000B30160E086E00E94B30168EC70E085E00E
:100930000E94FF0168EC70E080E090E00E94780285
:1009400060E087E00E94B30160E086E085CF8633F7
:1009500009F08ACF83E391E00E94AA0261E087E078
:100960000E94B30160E086E00E94B30168EC70E091
:1009700085E00E94FF016CE271E080E090E00E945F
:10098000780260E087E00E94B30160E086E00E94A8
:10099000B30164EF71E080E090E00E947802ACCF98
:1009A000E3E4F1E01382128288EE93E0A0E0B0E08D
:1009B00084839583A683B78384E091E091838083C9
:1009C00085EC90E09587848784EC90E09787868714
:1009D00080EC90E0918B808B81EC90E0938B828B0C
:1009E00082EC90E0958B848B86EC90E0978B868BE5
:1009F000118E128E138E148E0895EE0FFF1F059028
:0A0A0000F491E02D0994F894FFCF63
:100A0A00000000004601A600D30093010401E200A1
:100A1A00F6000D0A006D6F766531006D6F766532EE
:100A2A00006D6F766533006D6F766534006D6F7695
:0A0A3A006535006D6F76653600002B
:00000001FF
