:020000040000FA
:100000000C9436000C945E000C945E000C945E0020
:100010000C945E000C945E000C945E000C945E00E8
:100020000C945E000C945E000C945E000C945E00D8
:100030000C945E000C945E000C945E000C945E00C8
:100040000C948A010C945E000C94FA010C94D40177
:100050000C945E000C945E000C945E000C945E00A8
:100060000C945E000C945E002C02630311241FBEEE
:10007000CFEFD8E0DEBFCDBF21E0A2E4B1E001C008
:100080001D92A23FB207E1F711E0A0E0B1E0E0E588
:10009000FBE002C005900D92A234B107D9F710E041
:1000A000C5E3D0E004C02197FE010E94A303C4333E
:1000B000D107C9F70E94B7020C949B050C9400006D
:1000C000AF92BF92CF92DF92EF92FF920F931F9366
:1000D000CF93DF936C017B018B01040F151FEB01A4
:1000E0005E01AE18BF08C017D10759F06991D6015B
:1000F000ED91FC910190F081E02DC6010995892BCD
:1001000079F7C501DF91CF911F910F91FF90EF908B
:10011000DF90CF90BF90AF900895FC01538D448D38
:10012000252F30E0842F90E0821B930B541710F0A2
:10013000CF96089501970895FC01918D828D9817AF
:1001400061F0A28DAE0FBF2FB11D5D968C91928D87
:100150009F5F9F73928F90E008958FEF9FEF0895B8
:10016000FC01918D828D981731F0828DE80FF11D81
:10017000858D90E008958FEF9FEF0895FC01918D9C
:10018000228D892F90E0805C9F4F821B91098F7395
:10019000992708958BE491E00E94BE0021E0892B0D
:1001A00009F420E0822F089580E090E0892B29F067
:1001B0000E94CA0081110C9400000895FC01A48DD6
:1001C000A80FB92FB11DA35ABF4F2C91848D90E079
:1001D00001968F739927848FA689B7892C93A0895C
:1001E000B1898C91837080648C93938D848D9813E6
:1001F00006C00288F389E02D80818F7D8083089579
:10020000EF92FF920F931F93CF93DF93EC0181E066
:10021000888F9B8D8C8D98131AC0E889F98980810D
:1002200085FF15C09FB7F894EE89FF896083E88940
:10023000F98980818370806480839FBF81E090E032
:10024000DF91CF911F910F91FF90EF900895F62EBF
:100250000B8D10E00F5F1F4F0F731127E02E8C8D59
:100260008E110CC00FB607FCFACFE889F98980819E
:1002700085FFF5CFCE010E94DE00F1CFEB8DEC0FB4
:10028000FD2FF11DE35AFF4FF0829FB7F8940B8FBB
:10029000EA89FB8980818062CFCFCF93DF93EC0125
:1002A000888D8823B9F0AA89BB89E889F9898C915E
:1002B00085FD03C0808186FD0DC00FB607FCF7CF1A
:1002C0008C9185FFF2CF808185FFEDCFCE010E941A
:1002D000DE00E9CFDF91CF910895CF93DF93FC014A
:1002E00001900020E9F73197AF01481B590BBC0181
:1002F0008BE491E00E946000EC0142E050E068E194
:1003000071E08BE491E00E9460008C0F9D1FDF91F3
:10031000CF9108951F920F920FB60F9211242F9331
:100320003F938F939F93AF93BF9380914701909199
:100330004801A0914901B0914A013091460123E062
:10034000230F2D3758F50196A11DB11D20934601AD
:100350008093470190934801A0934901B0934A01CB
:100360008091420190914301A0914401B0914501D7
:100370000196A11DB11D8093420190934301A0936A
:100380004401B0934501BF91AF919F918F913F91EF
:100390002F910F900FBE0F901F90189526E8230FF6
:1003A0000296A11DB11DD2CF1F920F920FB60F92D0
:1003B00011242F933F934F935F936F937F938F936A
:1003C0009F93AF93BF93EF93FF938BE491E00E94D1
:1003D000DE00FF91EF91BF91AF919F918F917F913F
:1003E0006F915F914F913F912F910F900FBE0F90A2
:1003F0001F9018951F920F920FB60F9211242F93F2
:100400008F939F93EF93FF93E0915B01F0915C01D9
:100410008081E0916101F091620182FD1BC09081B9
:10042000809164018F5F8F7320916501821741F085
:10043000E0916401F0E0E55BFE4F958F80936401ED
:10044000FF91EF919F918F912F910F900FBE0F9081
:100450001F9018958081F4CF10924E0110924D019B
:1004600088EE93E0A0E0B0E080934F0190935001BC
:10047000A0935101B09352018AE091E090934C0116
:1004800080934B0185EC90E0909358018093570145
:1004900084EC90E090935A018093590180EC90E0B5
:1004A00090935C0180935B0181EC90E090935E01FE
:1004B00080935D0182EC90E09093600180935F01F6
:1004C00086EC90E090936201809361011092640148
:1004D0001092650110926601109267011092E90175
:1004E0001092E8011092EB011092EA011092ED01D6
:1004F0001092EC0163E070E090E080E00E94CE0496
:10050000009701F19093E9018093E80122E030E047
:100510003093EB012093EA012091EC013091ED0141
:10052000232B11F4FC01108282E090E09093ED0106
:100530008093EC016BE171E08091E8019091E90119
:100540000C9494058091E8019091E901009711F0D5
:100550000E9445041092E9011092E8011092ED0109
:100560001092EC011092EB011092EA010895789438
:1005700084B5826084BD84B5816084BD85B58260A8
:1005800085BD85B5816085BD80916E008160809359
:100590006E001092810080918100826080938100C2
:1005A00080918100816080938100809180008160D2
:1005B000809380008091B10084608093B10080912D
:1005C000B00081608093B00080917A008460809355
:1005D0007A0080917A00826080937A0080917A001C
:1005E000816080937A0080917A00806880937A009D
:1005F0001092C100E0915B01F0915C0182E0808388
:10060000E0915701F09158011082E0915901F09169
:100610005A018FEC808310926301E0915F01F091A9
:10062000600186E08083E0915D01F0915E01808150
:1006300080618083E0915D01F0915E01808188603E
:100640008083E0915D01F0915E018081806880830C
:10065000E0915D01F0915E0180818F7D8083C0E03B
:10066000D0E08BE491E00E94BE00892B51F08BE436
:1006700091E00E949C00813369F48EE191E00E9438
:100680006D01209771F30E94CA00882351F30E94E4
:100690000000E7CF823319F484E291E0F0CF833396
:1006A00019F48AE291E0EBCF843319F480E391E00E
:1006B000E6CF853319F486E391E0E1CF863309F77D
:1006C0008CE391E0DCCF8091E8019091E901009703
:1006D00011F00C94450408952F923F924F925F922F
:1006E0006F927F928F929F92AF92BF92CF92DF9242
:1006F000EF92FF920F931F93CF93DF93CDB7DEB7A7
:10070000CA1BDB0B0FB6F894DEBF0FBECDBF09943A
:100710002A88398848885F846E847D848C849B8491
:10072000AA84B984C884DF80EE80FD800C811B819F
:10073000AA81B981CE0FD11D0FB6F894DEBF0FBECE
:10074000CDBFED010895EE0FFF1F0590F491E02D50
:1007500009940F931F93CF93DF938230910510F488
:1007600082E090E0E091F001F091F10130E020E0D2
:10077000B0E0A0E0309799F42115310509F44AC0A2
:10078000281B390B24303105D8F58A819B816115EE
:10079000710589F1FB0193838283FE0111C04081C1
:1007A00051810281138148175907E0F04817590712
:1007B00099F4109761F012960C93129713961C936C
:1007C0003296CF01DF91CF911F910F910895009341
:1007D000F0011093F101F4CF2115310551F04217CA
:1007E000530738F0A901DB019A01BD01DF01F801CF
:1007F000C1CFEF01F9CF9093F1018093F001CDCFFC
:10080000FE01E20FF31F8193919322503109398346
:100810002883D7CF2091EE013091EF01232B41F4B3
:1008200020910201309103013093EF012093EE01FA
:1008300020910001309101012115310541F42DB7BE
:100840003EB74091040150910501241B350BE09106
:10085000EE01F091EF01E217F307A0F42E1B3F0B1E
:100860002817390778F0AC014E5F5F4F2417350722
:1008700048F04E0F5F1F5093EF014093EE018193BC
:1008800091939FCFF0E0E0E09CCFCF93DF93009770
:10089000E9F0FC01329713821282A091F001B0912D
:1008A000F101ED0130E020E01097A1F420813181C9
:1008B000820F931F2091EE013091EF012817390725
:1008C00009F061C0F093EF01E093EE01DF91CF9169
:1008D0000895EA01CE17DF07E8F54A815B819E01A2
:1008E00041155105B1F7E901FB83EA83499159911B
:1008F000C40FD51FEC17FD0761F48081918102962A
:10090000840F951FE90199838883828193819B835A
:100910008A83F0E0E0E012968D919C911397009706
:10092000B9F52D913C911197CD010296820F931F3D
:100930002091EE013091EF012817390739F63097F1
:1009400051F51092F1011092F001B093EF01A093D4
:10095000EE01BCCFD383C28340815181840F951FA8
:10096000C817D90761F44E5F5F4F88819981480F9E
:10097000591F518340838A819B81938382832115F0
:10098000310509F0B0CFF093F101E093F0019ECF73
:10099000FD01DC01C0CF13821282D7CFB0E0A0E00E
:1009A000E4EDF4E00C946E038C01009751F4CB015C
:1009B0000E94A9038C01C801CDB7DEB7E0E10C9419
:1009C0008A03FC01E60FF71F9C0122503109E21750
:1009D000F30708F49DC0D901CD91DC911197C6179A
:1009E000D70798F0C530D10530F3CE0104978617AC
:1009F000970708F3C61BD70B2297C193D1936D932A
:100A00007C93CF010E944504D6CF5B01AC1ABD0A8E
:100A10004C018C0E9D1EA091F001B091F101512C62
:100A2000412CF12CE12C109731F58091EE01909141
:100A3000EF018815990509F05CC04616570608F0C5
:100A400058C08091000190910101009741F48DB749
:100A50009EB74091040150910501841B950BE81746
:100A6000F90708F055C0F093EF01E093EE01F901AA
:100A700071836083A0CF8D919C91119712966C9099
:100A8000129713967C901397A815B90559F56C0128
:100A900042E0C40ED11CCA14DB0420F1AC014A1997
:100AA0005B09DA011296159780F062827382518396
:100AB0004083D9016D937C93E114F10471F0D70167
:100AC0001396FC93EE93129776CF22968C0F9D1F70
:100AD000F90191838083F301EFCFF093F101E0936B
:100AE000F00169CF4816590608F42C017D01D301A5
:100AF0009ACFCB010E94A9037C01009749F0AE0177
:100B0000B8010E948B05C8010E944504870153CF9C
:100B100010E000E050CFFB01DC0102C001900D921B
:100B200041505040D8F70895FB01DC0101900D922F
:100B30000020E1F7089510E0C5E3D0E004C0FE0115
:100B40000E94A3032196C633D107C9F7F894FFCFBB
:100B50000000F201800000000000000160008D0034
:100B60004D01BE009C00B0000D0A006869006D6F69
:100B7000766531006D6F766532006D6F7665330096
:100B80006D6F766534006D6F766535006D6F7665D7
:020B900036002D
:107E0000112484B714BE81FFF0D085E080938100F7
:107E100082E08093C00088E18093C10086E0809377
:107E2000C20080E18093C4008EE0C9D0259A86E02C
:107E300020E33CEF91E0309385002093840096BBD3
:107E4000B09BFECF1D9AA8958150A9F7CC24DD24C4
:107E500088248394B5E0AB2EA1E19A2EF3E0BF2EE7
:107E6000A2D0813461F49FD0082FAFD0023811F036
:107E7000013811F484E001C083E08DD089C08234E0
:107E800011F484E103C0853419F485E0A6D080C0E4
:107E9000853579F488D0E82EFF2485D0082F10E0AE
:107EA000102F00270E291F29000F111F8ED06801E7
:107EB0006FC0863521F484E090D080E0DECF843638
:107EC00009F040C070D06FD0082F6DD080E0C81688
:107ED00080E7D80618F4F601B7BEE895C0E0D1E017
:107EE00062D089930C17E1F7F0E0CF16F0E7DF06D8
:107EF00018F0F601B7BEE89568D007B600FCFDCFD4
:107F0000A601A0E0B1E02C9130E011968C91119780
:107F100090E0982F8827822B932B1296FA010C0160
:107F200087BEE89511244E5F5F4FF1E0A038BF0790
:107F300051F7F601A7BEE89507B600FCFDCF97BE46
:107F4000E89526C08437B1F42ED02DD0F82E2BD052
:107F50003CD0F601EF2C8F010F5F1F4F84911BD097
:107F6000EA94F801C1F70894C11CD11CFA94CF0C13
:107F7000D11C0EC0853739F428D08EE10CD085E9AC
:107F80000AD08FE07ACF813511F488E018D01DD067
:107F900080E101D065CF982F8091C00085FFFCCF94
:107FA0009093C60008958091C00087FFFCCF809118
:107FB000C00084FD01C0A8958091C6000895E0E648
:107FC000F0E098E1908380830895EDDF803219F02E
:107FD00088E0F5DFFFCF84E1DECF1F93182FE3DFCA
:107FE0001150E9F7F2DF1F91089580E0E8DFEE27F6
:047FF000FF270994CA
:027FFE00040479
:00000001FF
